:020000000328D3
:100006008316031387018312870107146630FB00EA
:100016007630FC00C130FD00FD0B0F28FC0B0F28CD
:10002600FB0B0F2807148710071587110716871271
:10003600071787131530FB004B30FC00BE30FD0060
:10004600FD0B2328FC0B2328FB0B2328000007109D
:100056008714071187150712871607138717153098
:10006600FB004B30FC00BE30FD00FD0B3828FC0BBE
:0C0076003828FB0B382800001528402813
:02400E004A2F37
:00000001FF
